:020000040800F2
:1000000000800020D5610008A9390008AD3900083A
:1000100000000000000000000000000000000000E0
:10002000000000000000000000000000A5600008C3
:100030000000000000000000116100085561000888
:100040002562000825620008256200082562000874
:10005000256200082562000825620008B139000801
:100060002562000825620008CD39000825620008D5
:1000700025620008DD3900082562000825620008B5
:100080002562000825620008256200082562000834
:100090002562000825620008256200082562000824
:1000A0002562000825620008256200082562000814
:0C00B000ED390008FD3900082562000849
:1000C00010B5064C2378002B07D1054B002B02D02E
:1000D000044800E000BF0123237010BD200200206F
:1000E00000000000B8870008044B10B5002B03D0B7
:1000F0000349044800E000BF10BDC04600000000F6
:1001000024020020B88700080023C25C0133002AC3
:10011000FBD1581E7047000002B4714649084900DF
:10012000095C49008E4402BC7047C0460022430867
:100130008B4274D303098B425FD3030A8B4244D3AF
:10014000030B8B4228D3030C8B420DD3FF220902F1
:1001500012BA030C8B4202D31212090265D0030BB0
:100160008B4219D300E0090AC30B8B4201D3CB03A6
:10017000C01A5241830B8B4201D38B03C01A5241E8
:10018000430B8B4201D34B03C01A5241030B8B42EA
:1001900001D30B03C01A5241C30A8B4201D3CB02D5
:1001A000C01A5241830A8B4201D38B02C01A5241BA
:1001B000430A8B4201D34B02C01A5241030A8B42BD
:1001C00001D30B02C01A5241CDD2C3098B4201D3D5
:1001D000CB01C01A524183098B4201D38B01C01A53
:1001E000524143098B4201D34B01C01A52410309CA
:1001F0008B4201D30B01C01A5241C3088B4201D379
:10020000CB00C01A524183088B4201D38B00C01A25
:10021000524143088B4201D34B00C01A5241411A4C
:1002200000D20146524110467047FFE701B5002059
:1002300000F0F0F802BDC0460029F7D076E770471D
:1002400003460B437FD4002243088B4274D3030937
:100250008B425FD3030A8B4244D3030B8B4228D3D8
:10026000030C8B420DD3FF22090212BA030C8B42FE
:1002700002D31212090265D0030B8B4219D300E09E
:10028000090AC30B8B4201D3CB03C01A5241830B23
:100290008B4201D38B03C01A5241430B8B4201D3D3
:1002A0004B03C01A5241030B8B4201D30B03C01AFC
:1002B0005241C30A8B4201D3CB02C01A5241830A76
:1002C0008B4201D38B02C01A5241430A8B4201D3A5
:1002D0004B02C01A5241030A8B4201D30B02C01ACF
:1002E0005241CDD2C3098B4201D3CB01C01A524136
:1002F00083098B4201D38B01C01A524143098B42BF
:1003000001D34B01C01A524103098B4201D30B01A7
:10031000C01A5241C3088B4201D3CB00C01A5241CC
:1003200083088B4201D38B00C01A524143088B4291
:1003300001D34B00C01A5241411A00D2014652412A
:10034000104670475DE0CA0F00D04942031000D349
:100350004042534000229C4603098B422DD3030A9E
:100360008B4212D3FC22890112BA030A8B420CD3AE
:10037000890192118B4208D3890192118B4204D3D7
:1003800089013AD0921100E08909C3098B4201D357
:10039000CB01C01A524183098B4201D38B01C01A91
:1003A000524143098B4201D34B01C01A5241030908
:1003B0008B4201D30B01C01A5241C3088B4201D3B7
:1003C000CB00C01A524183088B4201D38B00C01A64
:1003D0005241D9D243088B4201D34B00C01A52413B
:1003E000411A00D20146634652415B10104601D3C8
:1003F0004042002B00D54942704763465B1000D352
:10040000404201B5002000F005F802BD0029F8D0F7
:1004100016E770477047C0468446101C62468C46FB
:10042000191C634600E0C0461FB501F00FF8002814
:1004300001D40021C8421FBD10B500F067FF404243
:10044000013010BD10B501F001F8002801DB0020DB
:1004500010BD012010BDC04610B500F0F7FF002808
:1004600001DD002010BD012010BDC04610B500F018
:1004700089FF002801DC002010BD012010BDC0460E
:1004800010B500F07FFF002801DA002010BD012028
:1004900010BDC0468446081C6146FFE71FB500F04A
:1004A000C7F8002801D40021C8421FBD10B500F0D4
:1004B00049F84042013010BD10B500F0B9F80028ED
:1004C00001DB002010BD012010BDC04610B500F0BA
:1004D000AFF8002801DD002010BD012010BDC0468E
:1004E00010B500F057F8002801DC002010BD0120F5
:1004F00010BDC04610B500F04DF8002801DA00200C
:1005000010BD012010BDC04670B500220C4B040088
:100510000D00FFF7B5FF002804D12000290001F0ED
:10052000B7FD70BD064B00222000290001F068FADB
:1005300001F0AEFD80231B069C466044F1E7C046F7
:100540000000E04170B542004E024C0045026D0AC9
:10055000120EC30F760A240EC90FFF2A0FD0FF2CEC
:1005600011D00120A24200D070BDB542FCD18B4217
:100570000DD0002AF8D12800451EA841F4E701203B
:10058000002DF1D1EBE70120002EEDD1E9E70020AD
:10059000EAE7C04670B54A004E02450244006D0AC3
:1005A000240EC30F760A120EC90FFF2C15D0FF2A96
:1005B0000ED0002C15D1002A01D1002E1CD0002D08
:1005C00014D08B4227D00220013B1840013870BD67
:1005D000002EEED002204042F9E7002DFAD1FF2A8A
:1005E0000ED0002A0ED1002EEDD00BE001230139F0
:1005F000994308000130EAE70020002DE7D0E2E748
:10060000002EE7D18B42DED1944205DD0221581E37
:1006100008400138DBE70024A24204DCB542D2D80E
:100620000020B542D3D2581E012398430130CEE7B3
:1006300030B5420044024D02C30F4800640A120E56
:100640006D0A000EC90FFF2A12D0FF280CD0002A15
:1006500012D1002819D1002D17D1002C2BD0022047
:10066000013B1840013826E0002DF0D0022022E0A6
:10067000002CFBD1FF281FD000281FD1002D1DD139
:100680000220013B1840013815E0002C0ED08B42AF
:10069000E5D10022904204DCAC42E0D80020AC421C
:1006A00009D2581E01239843013004E00123013987
:1006B00099430800013030BD002DD7D18B42CED1F7
:1006C0008242E7DD0221581E08400138F3E7C046A8
:1006D000F0B54F464646D6460C000903C0B5490A58
:1006E000470F5E0039431F03DB0F9C4665007B0A02
:1006F000570F1F436D0DE40F760DA146C000B8469D
:10070000D200AB1B64457BD0002B5FDD002E00D0F8
:10071000A4E03E00164300D112E15E1E002E00D080
:100720009EE1871A4346B84280410125C91A4042DA
:10073000091A0B0200D431E149024E0A002E00D101
:100740006EE1300001F01CFE0300083B1F2B00DDB2
:1007500061E120223900D21A9E40D1409F400E43D1
:100760009D4200DD51E15D1B6B1C1F2B00DD7CE118
:100770002021C91A3D0030008F408840DD40791E9D
:100780008F41310007222843D940002507433A40D2
:10079000002A09D00F233B40042B05D03B1DBB4250
:1007A000BF417F42C9191F000B0200D426E26A1C18
:1007B000C64B55056D0D9A4200D106E1C44AFF08AB
:1007C0000A40530752023B43120B8EE0002B00D02D
:1007D000B8E06B1C5B055B0D012B00DC30E1871A78
:1007E0004346B842B641CB1A76429E1B330200D52F
:1007F0004CE13B003343A1D100220024002570E0EE
:10080000002B00DCE5E0002E00D183E0AF4EB542C6
:1008100060D0802636043743B846382B00DC3EE1F2
:10082000434613431F007A1E97413F188742804179
:10083000404209180B0200D4B0E0A44B01359D42A0
:1008400000D1C3E0A24A7B080A4001210F401F43A8
:100850005108D30707221F433A4099E79B4EB54200
:1008600038D0802636043743B846382B00DDDCE02C
:100870001F2B00DC30E11E004746203EF740BC46FF
:10088000202B04D04026F31A46469E4032431700E0
:1008900063467A1E97411F43CCE0002B00D104E24F
:1008A0004346134300D159E14B07C0081843802346
:1008B000C9081B03194208D04546ED081D4204D162
:1008C0004346D008590708432900420FC9007F4D0D
:1008D0001143C0004B07CA087C49C00803438D423E
:1008E00068D012036D05120B6D0D00211203180064
:1008F000130B0A0D12051A43764B2D0513402B439B
:100900005B00E4075B08234319001CBC9046994632
:10091000A246F0BD3E00164312D05E1E002E00D04F
:1009200000E187188742804141444042091801256F
:100930000B0233D5022585E764463300414610009B
:100940001D00C7E7002D00D0DAE00C000443F3D00F
:100950005C1C00D19FE15D4CA64200D12FE1DB433E
:10096000382B00DD66E11F2B00DD83E1202405002C
:10097000E41A0F00DD40D940A0404346A7405B1A6F
:10098000441EA04198462F433843171ABA42924159
:1009900043465242991A64463500CAE607223A4055
:1009A000002A00D0F6E64B07CA084849FF083B4337
:1009B0008D4296D11900114300D19EE18021090397
:1009C0000A431203120B414D8FE71500002200234A
:1009D0008BE7002B00D0C7E06B1C5F057F0D012F5C
:1009E00000DCF1E0394DAB4200D1B9E085180A00D6
:1009F000854289414244494251180722CF076D0878
:100A00002F4349083A401D00C2E607223049ED1A3B
:100A100031403A40BCE63E002838864000279FE639
:100A2000380001F0ADFC20308EE6434613431F0032
:100A30007A1E9741C71BB84280414042091A78E6A6
:100A40000E003B0006431343002D61D1002E00D061
:100A5000F4E0002B00D11BE164463900100039E7B7
:100A60001A4FBB427AD03300FFE630001F3DE8400A
:100A7000202B03D04021CB1A9E4037437B1E9F4141
:100A8000072207433A400021002589E7171A434609
:100A9000BA42B641591A76428E1B64464EE61F2B67
:100AA00000DDADE020264746F61AB740B9461700EC
:100AB000B246DF404E463E4337005646B240561ED1
:100AC000B24117434246DA408918AEE6FF070000FC
:100AD000FFFF7FFFFFFF0F8020264746F61AB74033
:100AE000B9461700B246DF404E463E4337005646F1
:100AF000B240561EB24117434246DA40891A99E77E
:100B00007F4CA6425BD0802424045B42214327E72C
:100B1000002E0CD1002B00D1CBE064463900100030
:100B2000774DD7E6764FBB4218D0330075E6002BE1
:100B300014D04B07C00818438023C9081B0319426F
:100B400007D0FC081C4204D17907D0080843E146CD
:100B500021004C46420FC9001143C000684DB9E660
:100B60001D0000220023C0E6002D5BD10D000543CF
:100B700000D1E2E65D1C00D1B0E0614DAE421FD075
:100B8000DB43382B71DC1F2B00DD96E020250F00A6
:100B9000ED1AAF40B9460700AA46DF404D463D4337
:100BA0002F005546A840D940451EA8418844074318
:100BB000BF18974292415142414435003AE664469B
:100BC00035004146100085E60B000343002D00D0A0
:100BD00063E6002BF5D04346134300D17AE687182D
:100BE0008742804107224144404209183A400B02A3
:100BF00000D4D5E6434B01351940C9E5380069E614
:100C00001E004746203EF740BC46202B04D040261D
:100C1000F31A46469E403243170063467A1E9741B8
:100C20001F4302E6364DAE42CAD080252D045B42FA
:100C30002943A6E70843411E8841A6E6002B00D1C0
:100C400048E6871A4346B842B641CB1A76429E1B05
:100C500033024BD5171A4346BA429241591A5242AF
:100C6000891A072264463A4092E501430F00791E33
:100C70008F419DE71C000F00203CE740202B03D054
:100C80004024E31A99400843411E884138437CE6DA
:100C90000022002425E6171A4346BA429241591A07
:100CA0005242891A6446350043E541461000144D0E
:100CB00010E680220024120380E61D000F00203D74
:100CC000EF40BC46202B03D04025EB1A9940084347
:100CD00007006346781E87411F4369E787189742DC
:100CE0009B4141445B42C9183500A3E53B003343B7
:100CF000CED0072231003A4052E600231A00F4E534
:100D0000FF070000FFFF7FFFF0B55746DE464E4667
:100D10004546E0B5834607000E03480085B092467D
:100D20001C00360B400DCD0F002800D19DE0954BE7
:100D3000984239D08023F6001B041E43924A7B0F51
:100D400033439946944603006344009300230026EE
:100D5000FF00029323031B0B98466300E40F5246E7
:100D60005B0D019400D1B3E086498B4200D19EE037
:100D70004246D100802212040A435146490F1143D2
:100D80008B46814952468C4600996344CB1A002118
:100D9000D20000932B0063409A460F2E00D905E144
:100DA0007A4BB6009B599F465B463343994600D029
:100DB000B8E002230826002700900293CAE7CB463A
:100DC0003A0002990195019B9A46022927D00329EE
:100DD00000D180E2012944D06D49009B8C466344D8
:100DE0001C00002C38DD530700D013E2D2085B460C
:100DF000DB0109D55946674B19408B468021C90054
:100E00008C46009B63441C00634B9C4207DC5B46A2
:100E100064055F075B0217431B0B620D02E00023B2
:100E20000027584A00211B031C0B0B0D1B052343F5
:100E300014055A4A380013401C4353466400DB072C
:100E400064081C43210005B03CBC90469946A2466C
:100E5000AB46F0BD0122524201231B1B382B00DCA4
:100E6000ADE1002200230027DCE75B4633439946CF
:100E70005ED0002E00D18AE1300001F081FA03003B
:100E80000B3B1C2B00DD7BE11D22D31A5A460100CF
:100E9000DA4008398E4013005F46334399468F404D
:100EA0003F4B00261B1A00930023029352E7414652
:100EB00053460B433B499B468C46009B634400933F
:100EC0005B46002B3BD1022300221E43022161E737
:100ED000434613439B4637D04346002B00D162E183
:100EE000404601F04DFA03000B3B1C2B00DD53E1A3
:100EF00002004146083A914088461D21CB1A5146CE
:100F0000D9400B0041460B439B46534693401A0081
:100F1000009B25499C46604403008C466344009333
:100F2000002137E70323B14600900C26029311E716
:100F30000023009301330426002702930AE70323CA
:100F4000C3461E43032125E701331E43002201212E
:100F500020E700239A46802300271B03094A61E704
:100F6000802349461B03194200D1E2E05946194249
:100F700000D0DEE00B431B0317001B0BA246014A07
:100F800050E7C046FF07000001FCFFFF7C88000817
:100F9000FF030000FFFFFFFEFE070000FFFF0F80C2
:100FA0000DFCFFFF01F8FFFFF3030000D94500D956
:100FB000CBE000D1C6E03C0048460027009B013B47
:100FC00000935B46160E1B021E4313029846330421
:100FD0001B0C9946310C0191FFF72EF94A4642430A
:100FE0000B04210C050019438A4207D98919013DD8
:100FF0008E4203D88A4201D9851E8919881A01991F
:10100000FFF71AF909048C464A4621046446424314
:10101000090C030021438A4204D98919013B8E42FD
:1010200000D8F1E02D041D43AB464346891A4246E1
:10103000280C12041D0C5B46140C22001B041B0C14
:101040005A4303946B434443029568431B19150CA0
:10105000EB189C4203D980246402A44660441C0C13
:1010600015041B042D0C20185D19814277D373D011
:101070000C1AA24A7D1BAF42BF419446009B7F429F
:101080006344E01B1C00864200D1DBE00199FFF7BE
:10109000D3F84A4642430B04290C070019438A42FD
:1010A00007D98919013F8E4203D88A4201D9871E88
:1010B0008919881A0199FFF7BFF809044A46894639
:1010C00029044D464243090C030029438A4207D9AB
:1010D0008919013B8E4203D88A4201D9831E89199E
:1010E0003F04891A3A00039F1A43380013041B0C6B
:1010F000584381460298150C6F4343434543484685
:10110000000C8446DB1963449F4203D980204002CF
:101110008446654448461F0C00041B04000C7D19DE
:101120001818A94200D284E000D17FE001231A43BD
:1011300057E680234A461B0313431B031B0BAA4697
:101140006F4A6FE6BA4200D935E74B46DC075808CC
:101150007B081C43FF0734E70024AF4289D2474491
:101160004745A4415B466442A4196418013BA6426A
:101170001ED2A0426DD800D1B6E0241A9B4678E773
:1011800003005A46283B9A400027914688E6584675
:1011900001F0F6F8203072E603005246283B9A40F0
:1011A00093460022B4E6504601F0EAF820309AE671
:1011B000A642E2D1B845DCD9341A9B4659E71F2B29
:1011C00065DC504C0099A4465C46614408008C40A4
:1011D00011008240D940501E82410C4314435A46AC
:1011E000DA401300620709D00F222240042A05D0FA
:1011F0002200141D9442894149425B181A0262D5AB
:101200000122002300270DE68A4200D80AE7831E48
:10121000891907E70F231340042B00D1E6E5171DBA
:101220009742924153429B44FA08E0E5002800D1DE
:10123000D7E57118531EB14227D3A94215D358D010
:101240001A0073E7002B00DC04E6012300229B4414
:10125000CDE502234744474589415B429C464942CC
:1012600089190C19E344241A03E743465F004745F4
:101270009B41B8465B429E19023A8919A94200D0A7
:1012800054E7404500D051E7ABE51A00F6E71F21CF
:101290005F4649420C1BE740202B07D01A49009BB0
:1012A0008C46634418005B4683401A43501E8241BB
:1012B0003A4307270023174009D00F21002311408C
:1012C0001400042995D122005F075B021B0BD20892
:1012D00017430022A6E5802359461B030B431B033B
:1012E00017001B0B064A9DE5BD42B2D89B46002461
:1012F000BFE68045B9D31A00C3E7C046FF0300002C
:10130000FF0700001E0400003E040000F0B54F4639
:101310004646D6468446C0B58046194E18030F038C
:101320004D00000B5C0082463F0B6D0DC90F9146CE
:10133000640DDB0F0120B5420AD0B44203D0A542B0
:1013400001D157450CD01CBC90469946A246F0BD31
:1013500066463E43F7D1AC42F5D154461443F2D130
:101360000120C845EFD1994207D0002DEBD163464B
:101370001F433800471EB841E5E70020E3E7C046B9
:10138000FF070000F0B54F464646D6464D00C0B5B3
:101390000E03C90F8A462C491F035C008046360B9A
:1013A0006D0D91463F0B640DDB0F8D421ED08C42BC
:1013B00016D0002D1ED130438446002C01D13A4373
:1013C00023D06246002A1AD09A4529D051460220DD
:1013D0000139084001381CBC90469946A246F0BD30
:1013E00039001143E5D002204042F4E73043FAD1FE
:1013F000AC420FD0002C0FD13A43E7D00CE00122D1
:10140000013B934318000130E5E763460020002BC1
:10141000E1D0DBE73A43E6D19A45D7D1A542D5DC06
:10142000A54205DBBE42D1D808D00020BE42D2D2B0
:1014300050460123013898430130CCE7C845C5D850
:101440000020C845F4D3C6E7FF070000F0B54F46BB
:101450004646D6464D00C0B50E03C90F8A462E49F2
:101460001F035C008046360B6D0D91463F0B640DEB
:10147000DB0F8D4218D08C4211D0002D18D1304393
:101480008446002C1ED13A431CD163460020002B19
:1014900030D0514602200139084001382AE0390095
:1014A0001143EAD0022025E03043FBD1AC4226D0E4
:1014B000002C26D13A4324D151460220013908405C
:1014C000013817E06246002A0FD09A45E1D1A542C3
:1014D00005DBBE42DDD819D00020BE420AD25046FC
:1014E000012301389843013004E00122013B93437A
:1014F000180001301CBC90469946A246F0BD3A4304
:10150000D0D19A45C5D1A542C3DCE0E7C845C0D8D3
:101510000020C845E3D3EDE7FF070000F0B55746CC
:10152000DE464E464546E0B5834606000F034800BA
:1015300087B092461D003F0B400DCC0F002800D114
:101540006FE0DE4B984238D08023FF001B041F431E
:10155000730F3B430193DA4B0027994600239B46C8
:10156000F60081442B0369001B0B52469846490D37
:10157000ED0F002900D185E0D04B994200D173E0F6
:101580004346DA0080231B0413435246CC48520FD3
:1015900084461343524600206144D200894421000E
:1015A000694000918C46012149448A460F2F00D999
:1015B00090E0C449BF00CF59BF465B463B4301930F
:1015C00000D06AE102230827002681469B46C9E72E
:1015D00032005846019B61460091022800D175E017
:1015E000032800D1FEE1012800D02CE100230027D0
:1015F000002600253F032A0D3F0BB34812053A434E
:1016000002401B051343009A5B00D1075B080B43A4
:101610003000190007B03CBC90469946A246AB4644
:10162000F0BD5B463B43019300D12FE1002F00D179
:10163000A5E1380000F0A4FE03000B3B1C2B00DDED
:1016400096E11D22D31A5A460100DA405E46083957
:101650008F4013008E403B4301939C4B00271B1A85
:10166000994600239B467DE7414653460B439349E9
:101670008C46E144002B00D01AE1022202201743DD
:1016800000228CE7134300D10DE14346002B00D12B
:1016900081E1404600F074FE02000B3A1C2A00DD96
:1016A00072E10100434608398B4098461D239A1A7F
:1016B0005346D3401A004346134352468A40494694
:1016C000081A824989468144002068E77B4B00273D
:1016D00000268EE7140C1204120C1100370C36048D
:1016E000350C794328008C462E00604360448346C5
:1016F00056432100300C80465846794340440291BD
:10170000844506D98846802149028C46E0444146FA
:1017100002913604010C360C00048B4681191E0C14
:101720001B041B0C0391190079438C462800754358
:101730006544A8465843050C45447743A94203D95C
:10174000802149028C466744290C8C4639000004EC
:10175000000C2D042D186144AB44059159460491A9
:1017600001990F043F0C080C390051434243904645
:1017700002008C46090C8B4662437C4344445C4423
:10178000A04503D98021490288464244210C88465D
:1017900061460904090C8C463900594343437043A0
:1017A0007E430F0CF6182404BE19644442448C4650
:1017B000B34203D980235B0298464044029B6146B2
:1017C0009846049B370443449B46AB45AD416B426E
:1017D0000D0405992D0C8C467F196744FD18A84609
:1017E0005D462D19A542A44193466442A446C344D4
:1017F000DC448F42BF4198459B4193459241A445AB
:10180000A4415B427F421F43360C52426442BF19DF
:101810002243BF18624638184302D20D039913437E
:101820006A020A43501E82416146ED0D2A434E0270
:101830003243D90100D4B3E00126500832400243BC
:10184000DE0732435B08224C5444002C62DD510712
:1018500009D00F201040042805D0101D904292415D
:1018600052429B180200D90104D580241948E40093
:10187000034054441848844200DD27E75E075B02BA
:10188000D2081F0B630516435B0DB2E60023994691
:101890000133042700269B4664E603230197814613
:1018A0000C279B465EE6012201201743002276E6C4
:1018B000032303201F43434671E6C046FF07000091
:1018C00001FCFFFFBC880008FFFF0F800DFCFFFF3D
:1018D000FF030000FFFFFFFEFE070000002380273C
:1018E00000933F030026434B83E6019B3200A4464E
:1018F000584670E6AC466EE6802701993F033942B0
:101900002DD03B422BD11F433F033F0B00951600C8
:10191000384B6EE601252D1B382D00DD66E61F2DA8
:1019200040DC35481C005044160082408440EE40A4
:10193000501E824134431443EB40620709D00F220A
:101940002240042A05D02200141D944280414042C6
:101950001B181A023ED501230027002649E68027DE
:10196000019B3F031F433F033F0B0094214B40E685
:1019700003005A46283B9A40002601926DE65846DD
:1019800000F0FEFC203057E603005246283B9A4008
:101990001300002293E6504600F0F2FC20307BE674
:1019A000CA4650E71F201E004042041BE640202D7F
:1019B00003D0124C5444A3401A43501E8241324378
:1019C00007260027164009D00F20002310401400DE
:1019D0000428B9D122005E075B021F0BD208164310
:1019E000002306E680273F031F433F033F0B1600FB
:1019F000004BFEE5FF0700001E0400003E0400004F
:101A0000F8B557464E464546DE460C000903E0B59C
:101A1000490A460F5F0031431E03DB0F760A9B46DF
:101A2000530F3343C84E6500C000E40FD2006D0D64
:101A3000A24681467F0D9C469046B74200D1B9E050
:101A40005B46012673409B46EE1BA34500D183E015
:101A5000002E63DD002F00D0B1E06346134300D1B8
:101A600023E1731E002B00D0BAE1861A6346B04210
:101A700080410125C91A4042091A0B0200D447E1EE
:101A800049024B0A98464346002B00D189E1404663
:101A900000F076FC0300083B1F2B00DD7CE12022D8
:101AA0003000D21A4146D040994002009E400A437D
:101AB0009D4200DD6AE15D1B6B1C1F2B00DD94E184
:101AC000202110003500C91A8E40DA408840DD40E0
:101AD000711E8E4111000722284300250643324023
:101AE000002A09D00F233340042B05D0331DB34205
:101AF000B641764289191E000B0200D43DE26A1CF1
:101B0000914B55056D0D9A4200D119E18F4AF608A7
:101B10000A40570752023743120B9BE0002E00D0B9
:101B2000C5E06E1C7605760D012E00DC48E16746A7
:101B3000861ACB1BB042BF417F42B8461F004346C6
:101B4000FF1A3B00B8461B0200D55FE137439AD12C
:101B500000220024002579E0002E00DCFAE0002FAE
:101B600000D18DE0784B9D4267D0802367461B04EF
:101B70001F43BC46382E00DC52E1634613435A1E15
:101B800093411E1886428041404209180B0200D43E
:101B9000BEE06D4B01359D4200D1D2E06B4A730827
:101BA0000A4001210E401E435108D30707221E435D
:101BB000324095E71E00164300D045E740E7624BF0
:101BC0009D423AD0802367461B041F43BC46382EF3
:101BD00000DDEBE01F2E00DC3AE133006746203BDE
:101BE000DF403B00202E05D04027BF1B6646BE408D
:101BF000324390464646721E96413343DAE0002B4C
:101C000000D114E26346134300D168E180234E07FC
:101C1000C008C9081B030643194208D06046C00823
:101C2000184204D163460100D2085E071643F30050
:101C30009946C900720F444D11434B46DE08424B92
:101C40004F073743CA089D4200D16EE012036D056D
:101C5000120B6D0D00211203130B0A0D12051A430E
:101C60003B4B2D0513402B435B00E4075B082343EC
:101C7000380019003CBC90469946A246AB46F8BDD8
:101C80006346134311D0731E002B00D007E1861862
:101C90008642804161444042091801250B0237D534
:101CA00002257BE73E00614691463500C5E75C466C
:101CB000002D00D0E1E00B000343F3D0731C00D1F2
:101CC000ACE1214B9F4200D13AE1F343382B00DDD8
:101CD0006FE11F2B00DD8CE120250E00ED1AAE40D8
:101CE000B0460600AA46DE40454635432E0055461E
:101CF000D940A8406346451EA8415B1A9C46304324
:101D0000161AB242924163465242991A3D00B4E615
:101D100007223240002A00D0E4E60B4BF6084F07BA
:101D20003743CA089D4200D090E73B00134300D1DF
:101D3000A6E180231B031A431203120B024D89E70D
:101D400015000022002785E7FF070000FFFF7FFF47
:101D5000FFFF0F80002E00D0C7E06B1C5E05760DE4
:101D6000012E00DCF0E0C84DAB4200D1B9E085188F
:101D70000A00854289416244494251180722CE0730
:101D80006D082E43490832401D00A9E6BF49ED1AEF
:101D9000114007223240A3E6320028388240002654
:101DA00086E6300000F0ECFA203073E66346134319
:101DB0005A1E9341C61AB04280414042091A5CE65D
:101DC0000E00674606431743002D5ED1002E00D05B
:101DD000F3E0002F00D11EE15C46614691462CE7FE
:101DE000A94FBE427BD01E00F1E610001F3DE84027
:101DF000202B03D04021CB1A9A401643731E9E41DC
:101E00000722064332400021002583E7161A634665
:101E1000B2428041591A40420B1A98465C4632E65B
:101E20001F2E00DDABE02027BB1B9A4663465746BA
:101E3000BB40994613004F46F3401F433B005746B3
:101E4000BA40571EBA4113436246F240891898E6D9
:101E50002027BB1B9A4663465746BB409946130052
:101E60004F46F3401F433B005746BA40571EBA4106
:101E700013436246F240891A9CE7834B9F425FD02E
:101E800080252D047342294320E7002E0CD1002F1A
:101E900000D1D0E05C46614691467B4DCDE67A4F5D
:101EA000BE421CD01E0065E6002F18D0C0084E07A9
:101EB00006438020C9080003014208D06346DC08BD
:101EC000044204D12100DA46D2085E071643F3002B
:101ED000994601245346C900720F11431C406A4DB4
:101EE000ABE61D0000220027B4E6002D59D10B00FF
:101EF000034300D1D6E6731C00D1B2E0624B9F428F
:101F00001ED0F343382B6FDC1F2B00DD97E020251C
:101F10000E00ED1AAE40B0460600AA46DE40454629
:101F200035432E005546A840D940451EA8418C4453
:101F30000643B61896429241514261443D0025E65F
:101F40003D006146914678E60B000343002D00D02A
:101F500055E6002BF5D06346134300D16DE6861895
:101F60008642804161444042091800220B0200D49D
:101F7000D0E6464B01351940B2E5B1465DE6330087
:101F80006746203BDF403B00202E05D04027BF1B8B
:101F90006646BE40324390464646721E96413343E3
:101FA000EFE5394B9F42CBD080252D047342294366
:101FB000A8E70843411E8841A2E6002F00D13CE675
:101FC0006346861ACF1AB0429B415B42FB1A984681
:101FD0001B024ED5161A6346B2429241591A52421A
:101FE000891A5C4600227BE501430E00711E8E417A
:101FF0009FE71D000E00203DEE40B046202B04D090
:102000004025EB1A99400843814648464346411E05
:102010008841184374E60022002417E6161A634626
:10202000B2429241591A5242891A3D0025E5614651
:102030009146154D01E680220024120379E61D0029
:102040000E00203DEE40B046202B04D04025EB1A78
:102050009940084381464E464346711E8E411E43B9
:1020600067E7861896429B4161445B42C9183D0070
:102070008CE547463743CED007224146324049E6F9
:1020800000273A00E6E5C046FF070000FFFF7FFF9C
:1020900030B5144D0A034B00120B5B0DC90F002421
:1020A000AB4211DD104CA34210DC802464032243B8
:1020B0000E4CE41A1F2C0CDD0D48C31ADA40130035
:1020C0005C42002900D11C00200030BD094BCC1817
:1020D000FAE7094DE040AC4663449A4013000343DD
:1020E000EEE7C046FE0300001D04000033040000BC
:1020F00013040000FFFFFF7FEDFBFFFF70B500281A
:102100002DD0C317C5185D40C40F280000F038F962
:10211000154B1B1A5B055B0D0A2815DD0B38854036
:1021200000222D032D0B002110002D030A0D2D0B75
:1021300012052A430D4D1B052A4013435B00E4079B
:102140005B082343190070BD02002900153291403D
:102150000A000B21081AC5402D032D0BE3E70024CC
:10216000002300250022DEE71E040000FFFF0F8091
:1021700010B5041E25D000F003F9144B1B1A5B05A3
:102180005B0D0A2812DD0B38844000222403240B47
:102190000021100024030A0D240B120522430C4CCD
:1021A0001B05224013435B00590810BD02002100AB
:1021B000153291400A000B21081AC4402403240B55
:1021C000E6E7002300240022E2E7C0461E040000E8
:1021D000FFFF0F804100090E4B1C70B5DBB24602B9
:1021E000750AC40F012B14DDE0239B006D07360B2D
:1021F000CB1800210A0D280012051C4D32435B0547
:102200002A405B0813435B00E4075B082343190083
:1022100070BD002914D1002D1ED0280000F0B0F8A8
:102220000A281CDC0B232A001B1ADA400300153392
:102230009D400F4B12031B1A5B05160B5B0DD8E775
:10224000002D06D0320B802636036D071643094B4E
:10225000CFE7084B0026CCE700230026C9E70300A0
:102260002A000B3B9A400025E3E7C046FFFF0F80A2
:1022700089030000FF070000F0B54C00640D0B035C
:10228000621C5B0A460F5205C90F1E43C500520D62
:10229000012A29DD374BE718FE2F1CDC002F3BDD20
:1022A0008001431E98410722F3006D0F03432B4327
:1022B0001A40002A04D00F221A40042A00D0043306
:1022C0008022D2041A4024D00137FAB2FF2F02D064
:1022D0009B01580A01E0FF2200204002D205400A7B
:1022E000C90710430843F0BD3543002C04D1002D2D
:1022F0000AD100220020F0E7002DECD08020C0039E
:102300003043FF22E9E7002400235B02580AE2B2CF
:10231000E3E7DB083C00F8E73B001733F3DB8023FF
:102320001B0433431E26F61B1F2E14DD02225242CD
:10233000D71B1A00FA401700202E04D00E4A9446EC
:102340006444A3401D432B005D1EAB4107223B4369
:102350001A400027ADE7094A2800A218954093408B
:102360006C1EA541F04007222B4303431A4000276F
:102370009FE7C04680FCFFFFA2FCFFFF82FCFFFF3F
:102380001C2101231B04984201D3000C10391B0AA5
:10239000984201D3000A08391B09984201D3000969
:1023A000043902A2105C40187047C04604030202C0
:1023B00001010101000000000000000010B5012033
:1023C00003F060FCFBE7C04610B5FA20800003F084
:1023D00059FC90202021C00502F024FFF5E7C046FB
:1023E00010B57D2003F04EFC80210248490102F027
:1023F00019FFF6E70004004810B5FA2003F042FC8C
:10240000802190200901C00502F00CFFF5E7C046CD
:1024100010B5FA20400003F035FC802190204901DE
:10242000C00502F0FFFEF4E70222F0B51E4BFFB03C
:1024300006201A7000F02EFB26221C491C4801F0D1
:1024400035FD1C4D26221C49280001F02FFD0520DA
:1024500003F012FD062000F031FB0122174928008D
:1024600001F056FDFA22C2265200002101A803F015
:1024700018FF134F134CB60002E0012003F0FCFCE0
:1024800001F0CEF90028F8D1C1239B00A070E053E1
:10249000A053E05201A801F0EBF9982201A95200E3
:1024A000280001F003FDE8E7B4240020FC880008C0
:1024B000281F00209C1F002024890008EC200020F9
:1024C00062030000F420002010B5012003F0DAFBC5
:1024D000FBE7C04600B599B0302200210CA803F0FC
:1024E000E0FE10220021684603F0DBFE1C220021E2
:1024F00004A803F0D6FE20230BA80B931F3B1393D5
:1025000002F0B4F8002800D0FEE707230290009301
:102510000390043B01216846019302F03FFB002831
:1025200000D0FEE70223079004A8049302F0ACFC5D
:10253000002800D0FEE719B000BDC046F0B5C64681
:1025400000B5A8B023AD02F04DFDFFF7C3FF142284
:102550000021280003F0A5FE8021844C0903626954
:10256000C1270A436261636990200B408021019377
:10257000019B6269C9030A43626163697F010B4081
:1025800080210293029B626989020A436261636946
:10259000C0050B4080210393039B6269C9020A4373
:1025A0006261636900220B4004933900049B02F0CE
:1025B00033FEC02300265B01002219006C489846B8
:1025C00002F02AFE6B4B290023936B4B6B486B6028
:1025D000AE6002F025FD9020239701272900C00559
:1025E0006F60AE60EE6002F01BFD4346290060485C
:1025F00023936F60AE60EE6002F012FD636900220B
:102600003B43636163690C241F40009796270321B5
:102610000A20009B02F0D4FE0A2002F0FDFE58487A
:10262000584BBF01036047608660C6600661446125
:102630008661C6610662466201F09CFE002800D0F9
:10264000FEE7514B514A9860D86018619861D86193
:102650001862586218001A605F605C6101F08AFEBF
:10266000002800D0FEE74A4B4A4A9860D8601861BB
:102670009861D8611862586218001A605F605C61E6
:1026800001F078FE061E00D0FEE7032102000720BD
:1026900002F096FE072002F0BFFE3F4C05AB220081
:1026A0009C4683CA83C303CA03C33100604603F058
:1026B000C1FB3A4B18600AAB9C46230062461433B8
:1026C00083CB83C203CB03C23100604603F0B2FB6D
:1026D000334B18600FAB9C4623006246283383CBF4
:1026E00083C203CB03C23100604603F0A3FB2D4B32
:1026F000186014AB9C46230062463C3383CB83C2F4
:1027000003CB03C23100604603F094FB264B1860F4
:1027100019AB9C4623006246503383CB83C203CB64
:1027200003C23100604603F085FB204B18601EABEE
:102730009C4623006246643383CB83C203CB03C22F
:102740003100604603F076FB194B783418602B009B
:1027500007CC07C3280006CC06C3310003F06AFB90
:10276000144B186003F060FBFEE7C0460010024007
:10277000000400482020000000001110000800485C
:102780009C1F0020004C0040281F00200014014026
:102790007020002000440040D0870008C01E0020A8
:1027A000981F0020E8200020E4200020BC1E00200C
:1027B000B41E0020E0200020044B026810B59A42AD
:1027C00000D010BD02F01EFCFBE7C046002C01400B
:1027D000FEE7C046EF2370B5664C9B00E2580368E5
:1027E00012680500934204D0634C2268934232D0B1
:1027F00070BDC1229200A35A60498B4222D8604822
:102800000378DBB2012B37D0002B1ED0022B5AD01D
:10281000032B17D1A35A8B4214D8A35A6278E3181A
:10282000D2B21A7162786378DBB20D2A00D17EE0F1
:102830000A2B00D17BE0C1229200A35A01339BB244
:10284000A35202E0022000F0E5F801224D492800E1
:1028500001F05EFBCCE780214B48090102F0E2FC6D
:102860004A4D01222900200001F020FB012229000D
:10287000200001F04DFBBBE7FF23A15A5B0099420A
:1028800049D8A35A6178E318C9B2197121786378DD
:102890009942D0D12378002BCDD0A3782B2B63D8AD
:1028A000A378A25AB133FF335B0092B2E3185A8087
:1028B0000022A3788533FF335B00E252A378013313
:1028C000DBB2A370B7E76378002B2AD06378242BA0
:1028D000BBD1A3782C2BB5D8A35A6178E318C9B221
:1028E0001971A378A15AB133FF335B0089B2E318A1
:1028F00059800021A3788533FF335B00E152A35A4E
:10290000082101339BB2A3520323214A0370137899
:102910000B43137099E710211D4A13780B43137072
:1029200093E7611C0122280001F0F2FA60E7C1225E
:10293000A3789200A25A8533FF3392B25B00E25231
:10294000022302210370124B1A780A4308211A70DD
:102950001A788A431A70A3780133DBB2A3700D4B47
:10296000186802F043FF66E72021094A13780B43F9
:10297000137060E7F42000209C1F0020FF0100007E
:10298000B4240020F520002000040048EC200020A2
:10299000F0200020E0200020037810B5042B0FD099
:1029A000062B0BD00024022B01D0200010BD054CBB
:1029B00001220549200001F0ABFAF6E7034CF7E7E6
:1029C000034CF5E770200020F5200020281F002090
:1029D0009C1F0020EF2370B5054C9B00E558002D8F
:1029E00005D0E3580A000100180001F05FFA70BD3D
:1029F000F420002000B583B06B46D871073318006F
:102A0000FFF7CAFFEF23024A9B00D05003B000BD7E
:102A1000F42000201A4BC12210B518700023194968
:102A200092008B708B520022CA70174A00208B5282
:102A300000221300B133FF335B00CB185880130022
:102A40008533FF335B000132C8522D2AF1D1802437
:102A500000230020A400CA1801331071A342FAD148
:102A600001210A4B1A780A4302211A701A788A4304
:102A70001A701A7806318A431A70054B187010BD07
:102A8000B4240020F420002006030000F0200020E1
:102A90000425002000B583B06B46D87107331800B9
:102AA000FFF77AFFEF23024A9B00D05003B000BD2E
:102AB000F420002010B5FFF78DFF10BD0122F8B5FE
:102AC00000241700294B2A495C600D795E68AF40ED
:102AD000BD1917005D600D7C5E68AF40BD195D607B
:102AE000097F5D688A4052195A604122214B50216A
:102AF0001A705A70204A52251A62204A5A62204A95
:102B00001A63204A5A6300221A645A645C540131E1
:102B10005C5400215C530A3559550135595501352E
:102B20005C530A3D595501355955013559550A35FA
:102B30009C65595501355955013559555C661971D2
:102B40005971632199705E39D9700F4919615A61C1
:102B50009A61DA619A64DA649A63DA639A62DA6291
:102B60009C60DC60FFF746FFF8BDC046B82400203B
:102B700020000020442500200000B4420000B4C220
:102B800000003443000034C30000A040F8B55746AD
:102B90004E464546DE464F4BE0B51D684E4B012480
:102BA00099464E4B01279A4668239846631E4C4E21
:102BB000D346DBB22F421CD0092B1AD84A469B00C1
:102BC000D3589F46454B9A78F3789A426CD3434B3F
:102BD0009A78B3789A4267D843460222F35C9343CB
:102BE0004246B3546D080134E4B2631EDBB22F4297
:102BF000E2D16D08212CF6D16823F05C40B23CBCD8
:102C000090469946A246AB46F8BD5346186971698D
:102C1000FDF770FC002840D0534618693169FDF774
:102C200055FC002839D043460422F35C93434246C6
:102C3000B354D7E75B46DA68736E9A423BD35B4680
:102C4000DA68B36D9A4236D843464246F35CBB43DA
:102C5000B354C7E743462022F35C93434246B35440
:102C6000C0E71E4B5A78737852B25BB29A4229DBA6
:102C70001A4B5A78337852B25BB29A4222DC4346FE
:102C80000822F35C93434246B354ABE74346102219
:102C9000F35C93434246B354A4E743460422F35CF7
:102CA00013434246B3549DE743460222F35C134369
:102CB0004246B35496E743460122F35C134342462F
:102CC000B3548FE743460822F35C13434246B354A0
:102CD00088E7C04644000020A4890008C4240020DE
:102CE00044250020F8B5DE464E4657464546E0B539
:102CF0000600414C292723181879731CE318197909
:102D0000C0B2C9B200F048FE28233C4DE854B31CC1
:102D1000E3181879F31CE3181979C0B2C9B200F0AE
:102D20003BFE331D0536E318E855A41918792179BF
:102D3000C0B2C9B200F030FEFA23DB009C4660440A
:102D400080B26885E85D6B8D02389BB2C0B299464F
:102D5000002845D11800013883B299467023FF330B
:102D60009B462823E85C6421C3B29A462C23E85C86
:102D7000C3B298462D23EF5C0133EE5C4B464846C8
:102D80009C08FDF7D3F9C82180B2241A49004846AF
:102D9000FDF7CCF94B46DB004B4480B2DB004B44E3
:102DA000201858449A0050449B18C0184300181823
:102DB000C000030043441801C01A8000FFB2C719C5
:102DC0003B01DF1B0E4BF6B29C46BF006644BE19AA
:102DD000AE6000203CBC90469946A246AB46F8BD8A
:102DE00043001B18DB001B1A1B01181A0C21FDF7EE
:102DF00027FA8346B5E7C046F4200020C42400200B
:102E000080BFB186F0B5DE464E46454657460400C3
:102E1000E0B583B006220021684603F042FA724D05
:102E20002B191879631CEB181979C0B2C9B200F0DC
:102E3000B3FD2C236D4EF054A31CEB181879E31C42
:102E4000EB181979C0B2C9B200F0A6FD2D23F054D9
:102E5000231DEB181879631DEB181979C0B2C9B29C
:102E600000F09AFD2E23F054200000211E3006E0D1
:102E70001B792C2B4DD00134A4B2844208DC2B19D1
:102E80001A792E2AF4D121000134A4B28442F6DD4D
:102E9000574B5B1A1BB2002B41DD1C1C032B36DC8D
:102EA00023B298464B1CEA1810792F2827D910799D
:102EB00000270022392809D921E053180133E818E6
:102EC00004792F2C1BD90079392818D86846EB18BB
:102ED0001B79013292B2C35517004245EDDB6846BB
:102EE00003F0ACF943463063022B00D171E0032BB1
:102EF00000D074E0684603F0A1F9306315E00120CA
:102F000003B03CBC90469946A246AB46F0BD0324B4
:102F1000C6E7013CA3B25B1A1BB2002BBDDC6846BE
:102F200003F08CF90023306333632923F05C738D45
:102F300002389BB2C0B2994600283FD1013B9BB2F8
:102F400099467023FF339B462823F35C6421DBB250
:102F50009A462C23F35C4846DBB298462D23F75C57
:102F60000133F55C4B469C08FDF7E0F8C82180B2C0
:102F7000241A49004846FDF7D9F84A46D2004A4487
:102F800083B2D2004A44E3185B4491005218534480
:102F90009B185A00D318DB0043441A001B019B1AEC
:102FA0009B00FFB2DF193B01DF1B124BEDB29C46C9
:102FB000BF0065447D19B5600020A1E743001B18E0
:102FC000DB001B1A1B01181A0C21FDF739F9834687
:102FD000BAE7326B93009B185B003363A5E7642369
:102FE000326B53433363A0E7F4200020C424002055
:102FF000FFFF000080BFB186F8B5274D04002B18F5
:103000001B792F2B05D90134A4B22B191B792F2B37
:10301000F9D82B191B792E2B08D00022352101203D
:103020001E4B5A5401315A541A87F8BD231FEB180E
:103030001879E31EEB181979C0B2C9B200F0ACFCE4
:103040003523164FF854A31EEB181879631EEB189E
:103050001979C0B2C9B200F09FFC3623F854631C42
:10306000EB181879A31CEB181979C0B2C9B200F09B
:1030700093FCE31C0434EB182C1906001879217911
:10308000C0B2C9B200F088FC64235E43301880B23D
:1030900038870020C9E7C046F4200020C42400205F
:1030A000F8B5274D04002B181B792F2B05D90134B7
:1030B000A4B22B191B792F2BF9D82B191B792E2B86
:1030C00008D000223B2101201E4B5A5401315A5492
:1030D000DA87F8BD231FEB181879E31EEB1819796E
:1030E000C0B2C9B200F058FC3B23164FF854A31EDF
:1030F000EB181879631EEB181979C0B2C9B200F049
:103100004BFC3C23F854631CEB181879A31CEB18F8
:103110001979C0B2C9B200F03FFCE31C0434EB18CB
:103120002C19060018792179C0B2C9B200F034FC1C
:1031300064235E43301880B2F8870020C9E7C04698
:10314000F4200020C424002070B549014018C0B20A
:1031500084B01400472803D8C54B80001B589F46F5
:10316000012004B070BD1000FFF74CFEF9E7C14B21
:103170009A181179412900D189E11179562900D194
:1031800085E11179612900D181E11279762A00D196
:103190007DE10022B84B01205A70E2E71000FFF7F2
:1031A0002BFFDEE73421B34B9C182379B24ADBB204
:1031B00053542379532B00D176E123794E2BCFD171
:1031C0000421137900208B431371CAE71000FFF725
:1031D00067FFC6E73A21A74B9C182379A64ADBB2C2
:1031E00053542379572B00D158E12379452BB7D17C
:1031F0000221137900208B431371B2E76D46002141
:103200000F22280003F04DF8210026000E31994BC3
:103210000BE02E2A02D3303A092A0BD96434A4B227
:103220000134A4B28C4200DD19E11A191279D2B22C
:103230002E2AEED11A191079A21BA854F0E710001B
:10324000FFF750FD8DE76D460F220021280003F0A7
:1032500028F8200026000E30864B06E06434A4B225
:103260000134A4B2A04200DAE8E019190A79303A30
:10327000092AF3D80979A21BA954F1E76D460F2258
:103280000021280003F00DF8200026000E30794BB5
:1032900006E06434A4B20134A4B2A04200DABCE077
:1032A00019190A79303A092AF3D80979A21BA954C5
:1032B000F1E76D4600210F22280002F0F2FF210005
:1032C00026000E316B4B0BE02E2A02D3303A092A2E
:1032D0000BD96434A4B20134A4B2A14200DAA4E050
:1032E0001A191279D2B22E2AEED11A191079A21B0C
:1032F000A854F0E76D4600210F22280002F0D1FF0C
:10330000210026000E315B4B0BE02E2A02D3303A0F
:10331000092A0BD96434A4B20134A4B2A14200DA60
:1033200094E01A191279D2B22E2AEED11A19107914
:10333000A21BA854F0E76D4600210F22280002F0DE
:10334000B0FF210026000E314A4B0AE02E2A02D39C
:10335000303A092A0AD96434A4B20134A4B2A14291
:1033600052DB1A191279D2B22E2AEFD11A1910791A
:10337000A21BA854F1E76D4600210F22280002F09D
:1033800090FF210026000E313A4B0AE02E2A02D38C
:10339000303A092A0AD96434A4B20134A4B28C4266
:1033A00029DC1A191279D2B22E2AEFD11A19107902
:1033B000A21BA854F1E76D4600210F22280002F05D
:1033C00070FF210026000E312A4B0AE02E2A02D37C
:1033D000303A092A0AD96434A4B20134A4B28C4226
:1033E0004CDC1A191279D2B22E2AEFD11A1910799F
:1033F000A21BA854F1E7280002F015FFFEF73CFFDE
:103400001D4BD8610020ACE6280002F00CFFFEF74F
:1034100033FF194B98610020A3E6280002F008FF53
:10342000154BC0B2987000209BE6280002F0FBFE0E
:10343000FEF722FF104B1861002092E6280002F0F0
:10344000F7FE0D4BC0B2D87000208AE6280002F0CB
:10345000EAFEFEF711FF084B5861002081E62800C4
:1034600002F0E1FEFEF708FF034B1862002078E649
:10347000CC890008F4200020C4240020280002F099
:10348000D2FEFEF7F9FE0B4B5862002069E61C19CC
:103490002379084A5BB25370002062E60221137957
:1034A00000200B4313715CE60421137900200B43C9
:1034B000137156E6C4240020F0B54E4657464546E3
:1034C000DE461B23E0B58BB0029300230193C84B6B
:1034D000C84E9946C84B9846C84B9A464B461B78EF
:1034E0009B0715D5F378B133FF335B00F3185D8884
:1034F000F378ADB28533FF335B00F45AA4B2A54232
:1035000018D30023424613704B461B789B07E9D41F
:10351000C1239B00F25ABA4BF35A9A4202D30220BB
:10352000FFF778FA00200BB03CBC90469946A246C3
:10353000AB46F0BD6F1CE01E3B00B84200DCA8E0CB
:103540000022F118097901334A409842F9DC93B21C
:103550009B46A31EF3181B7908AA1370631EF31869
:103560001B790021537008A8102203F0B1FD80B22E
:10357000834519D0A24B0134A4B2F452F37801333D
:10358000DBB2F370F278B3789A4206D24B4602224D
:103590001B7813434A461370A0E74B4602221B7860
:1035A00093434A46137099E70322002109A802F0C9
:1035B00078FE73191B792C2B00D1CCE02B00013342
:1035C0009BB29C427ED3F21812792C2AF7D15A1E54
:1035D000B218127908A9D2B204928A719A1E033BDA
:1035E000B218F31812791B79D2B2DBB205924A7184
:1035F00006930B710023804A824909A8137002F0D8
:1036000079FE002863D0804B09A819009B4602F080
:1036100071FE002800D0C4E07C4909A802F06AFECF
:103620000023039300286DD1594609A8183102F0F0
:1036300061FE0222002866D16F4B1B78002B2BD035
:1036400001239B4623005C469B4603E00135BB45B6
:103650001AD0013773191B79BFB22C2BF6D1019AFE
:103660002B3B134259D1131E07D1039B012B6AD068
:10367000002B60D0022B57D0019B5B0801340193D3
:10368000E4B20135BB45E4D100235B4A5C461370CC
:1036900070E700239B465CE7524650460599069B1F
:1036A000917253724B400299049A5940C2724A4037
:1036B00057485849029202F0FDFD1D215046FFF780
:1036C000F9F957E7002305930693049392E75249CB
:1036D00009A802F00FFE4C4B039019009B4609AB62
:1036E000180002F007FE039B0790002B35D000283E
:1036F0006AD1594609A80C3102F0FCFD012303935D
:10370000002891D0012253009B189B005B449B68CA
:10371000394A0193012313708EE73A000399200080
:10372000FFF712FD019BA8E70422334B9B6813436C
:10373000314A9360A0E701222F4B9B6813432E4A26
:103740009360019B99E702222B4B9B6813432A4A03
:103750009360019B91E72B0039E7304909A802F0FB
:10376000C9FD002821D0079B002B31D1594609A85B
:103770000C3102F0BFFD2949039009A802F0BAFDFF
:10378000039B00281BD0002B26D1244909A802F056
:10379000B1FD43424341FD225B421A40931C039317
:1037A00042E7002300220393ADE7079B002B1BD1C8
:1037B000594609A80C3102F09DFD03000390002B2F
:1037C0000ED1FF3303932FE70123002203939AE7DF
:1037D00002230022039396E702230122039392E738
:1037E000FF23012203938EE7FF23002203938AE73E
:1037F000F0200020F4200020B82400200000002049
:1038000006030000EC8A0008200000202C000020A5
:1038100019000020F88A0008F08A0008F48A0008DD
:103820000F4B70B51B789B0702D40124200070BD9C
:10383000FFF742FE0B4DAA686B689A42F5D1FFF77D
:10384000A5F9C4B2002C07D1074E40220749300029
:1038500002F01EFD012333700023AB60E6E7C04693
:10386000F0200020B824002004250020C4240020DB
:10387000F0B5DE4657464E464546E0B5444BB1B03E
:103880002B905A78362452B220929A78D1B2219154
:10389000DA78D0B222901A799E68D5B2DF681969B9
:1038A0005A69239527922822249626919969DD69E1
:1038B0001E6A29952A9625972891586A9F5C01329D
:1038C0002C979A5C35262D922C22598D34272E91D7
:1038D0002E219D5C01322F959A5C595C1D6B9E5D7B
:1038E000DF5D1C5DA4461C8FA0463B241C5DA146E9
:1038F0003A241C5DA2463C241C5DDB8F1D9454467B
:103900001C944C461B9444461A9464461E932D9B6B
:10391000169515912F9D2E9911932C9B149210930F
:1039200018971796139519941291FEF753FC0E9061
:103930000F912A98FEF74EFC0C900D912998FEF7F6
:1039400049FC0A900B912898FEF744FC08900991D5
:103950002798FEF73FFC069007912698FEF73AFC61
:10396000259F04900591249E2298239D0090039703
:1039700002960195219B209A06492B9802F09AFC09
:1039800031B03CBC90469946A246AB46F0BDC0461D
:1039900004250020008B00088300C0181039400067
:1039A0004018C0B27047C0467047C046FEE7C046E8
:1039B00010B5202001F03CFC8020800101F038FC93
:1039C00090202021C00501F02DFC10BD10B502484B
:1039D00001F0A8FC10BDC046701E002010B50248C2
:1039E00000F0B4F910BDC046B025002010B5024863
:1039F00000F004FB10BDC0467020002010B5034845
:103A000000F0FCFA024800F0F9FA10BD9C1F0020FB
:103A1000281F002001220D4B00B599690220114397
:103A20009961996983B00A4080210092009ADA690D
:103A300049050A43DA61DB6900220B400193032147
:103A40004042019B01F0BCFC03B000BD00100240ED
:103A500030B504008DB01422002107A802F021FC2B
:103A60002368504A934208D04F4A93422CD04F4A81
:103A7000934200D170E00DB030BD80224C4B9202D9
:103A8000D96990201143D961D969C00511400191CC
:103A900001995969114359615B6907A91A4002925A
:103AA000029B0C2307930A3B089301330A93023BC2
:103AB0000B9301F0B5FA002203211C2001F080FCD9
:103AC0001C2001F0A9FCD6E78020394B0003D969FE
:103AD0000143D9618021DA69890202400392039A85
:103AE0005A6990200A435A615B6902220B40049391
:103AF000049B0323C00507930A9307A90133089287
:103B00000B9301F08DFA2B4D2B4B80222B60102351
:103B10006B6000232800AB60EA602B616B61AB61D6
:103B2000EB6101F091FB002801D0FEF751FEA823C4
:103B3000F020224AD1588143D150D1584038014316
:103B4000D15093382566002203216C6201F038FCC5
:103B50001D2001F061FC8EE72022154B1848996961
:103B60001143996199690A4080210592059A5A6921
:103B700009030A435A615B6903220B400693069BC3
:103B8000022307A9079208930A920B9301F048FABF
:103B9000002203211D2001F013FC1D2001F03CFC3C
:103BA00069E7C04600440040004C0040001401405A
:103BB00000100240701E00201C0002400000024065
:103BC0000008004810B5010086B000220D2001F069
:103BD000F7FB0D2001F020FC8020144A00019169C0
:103BE00001439161936969460340019302A8019BD7
:103BF00001F02EF901F01CF90D4C0E4B0E4923601B
:103C00000E4BE360FCF792FA00230138606020005D
:103C10002361A36000F016F803000120002B02D1FD
:103C2000200000F081F806B010BDC0460010024030
:103C3000B0250020002C014040420F00E7030000A7
:103C40007047C04670B5041E4AD03D23C35CDBB24A
:103C5000002B24D03D2302222C4EE2542268A56979
:103C60001368E0686168B2423CD08026F605B24233
:103C70001AD0274EB24217D0264EB24241D0264E1D
:103C8000B24233D0254EB24230D0254EB2422DD072
:103C90008026B3432B431360D06291621AE03C222A
:103CA0008354FFF7CDFFD5E77026B343A6683343AF
:103CB0001C4E3340266933438026B3432B431360A5
:103CC000164BD06291629A4202D0154B9A4201D1B2
:103CD00063691363012353613D220020A35470BD27
:103CE0000120FCE77026B343A66833430D4E3340F2
:103CF000266933438026B3432B431360D06291621D
:103D0000E6E7084E334026693343C1E7002C014003
:103D100000040040002000400040014000440140F9
:103D200000480140FFFCFFFF03680120D968014300
:103D3000D9601A6802431A60002070477047C04675
:103D40007047C0467047C0467047C04602220368AD
:103D500010B5196904000A4202D0D9680A4265D137
:103D6000042219690A4202D0D9680A424BD10822BA
:103D700019690A4202D0D9680A4233D1102219695E
:103D80000A4202D0D9680A421CD1012219690A42AA
:103D900002D0D9680A425CD1802219690A4202D055
:103DA000D9680A425CD1402219690A4202D0D96816
:103DB0000A425DD1202219690A4202D0D9680A421A
:103DC00041D110BD213A1A6119322277DA69C02334
:103DD0009B0020001A425ED0FFF7B2FF002323773A
:103DE0002368D2E7113A1A61DB690D32227720008D
:103DF0009B074DD1FFF7A2FF2000FFF7A3FF002391
:103E000023772368BAE7093A1A61073222779A6959
:103E1000C0239B0020001A4237D1FFF78FFF2000FC
:103E2000FFF790FF002323772368A0E7053A1A6184
:103E30009B69043202779B0721D0FFF781FF0023A3
:103E4000237723688CE7413A1A61200000F02AF8B2
:103E5000B7E7033A1A612000FEF7AEFC23689BE740
:103E6000023AFF3A1A61200000F01EF823689AE730
:103E7000813A1A612000FFF767FF23689AE7FFF78E
:103E80005DFF2000FFF75EFFD9E7FFF759FFC9E7A5
:103E9000FFF756FFB3E7FFF751FF2000FFF752FF90
:103EA0009CE7C0467047C0467047C0460300692083
:103EB00030B51C5C6738202C1ED100291DD001387C
:103EC000002A19D080249D686401A54217D068207B
:103ED0001C5C012C19D0D96450215A5202315A521B
:103EE000212400221731DA665C541A5400201A6823
:103EF000173113680B43136030BD0120FCE71C69C8
:103F0000002CE4D10142E2D0F6E70220F4E7C046FB
:103F100003006A2070B51C5C6838202C2DD1002964
:103F20002CD00138002A28D080259C686D01AC4235
:103F300026D068255E5D012E4DD058555965582113
:103F40005A5202315A52002C2CD11A69002A3ED101
:103F50005C22FF21995200226A212220DA665854FD
:103F600002395A541B6867399A6800200A439A60DC
:103F70009022196852000A431A6070BD0120FCE7C4
:103F80001C69002C19D10142F7D16820185C012866
:103F900021D0596558215A5202315A525C220F4998
:103FA0009952D8E7802252059442D4D11A69002A46
:103FB0000DD05C223F219952CDE76820185C012882
:103FC00009D0596558215A5202315A52C0E75C2231
:103FD0007F219952BFE70220CFE7C046FF010000D2
:103FE0007047C0467047C04600235A2210B5406A49
:103FF0008352083A8352FFF7F5FF10BD036870B58E
:10400000DA6904001968100718D12020104200D086
:104010006AE09D6880204003024202D06D0200D514
:10402000CFE08020104202D0084200D0AAE0402019
:10403000104202D0084200D09AE070BD01209D6875
:10404000284000D17FE00125154205D0CE0503D5DB
:104050001D62E66E3543E5660225154200D17CE01F
:10406000002806D004261D62E56E3543E56616423B
:1040700077D1150705D58D0600D59CE0002800D026
:1040800099E0E06E0028D8D02020104202D00842EB
:1040900000D0A9E0E26E120704D440259A681540CA
:1040A00000D1CDE01A687D490A401A609A68233130
:1040B000FF318A439A606A221F31A1549A682031E5
:1040C000114200D187E09A68606E8A439A600028A6
:1040D00000D180E0724B436301F000F90028ACD0BE
:1040E000606E436B9847A8E7084200D191E76A22C7
:1040F000A25C222A73D180209B8CA5683A32A25AF6
:104100009BB2616D4001854200D1ABE0481C134079
:1041100060650B705A22A35A013B9BB2A352002B3D
:1041200000D08AE723685D491A6820000A401A60B7
:104130009A682331FF318A439A606A232022E2542D
:10414000FEF748FB79E790267600314200D161E71F
:104150000125154200D17FE778E7550789D500286A
:1041600087D0042502261D62E56E3543E56680E7AB
:104170001A6882431A60692320222000E254FFF764
:104180002FFF5AE76922A25C212A00D055E731327D
:10419000A25A002A59D08021A068E26C49018842C5
:1041A00069D0511CE16412781A855222A35A013B4E
:1041B0009BB2A35241E708251D62E06E2843E066EA
:1041C0005FE7186269222023A3540132A354200020
:1041D00000F04AFA31E72000FFF704FF2DE708213D
:1041E0009A690A439A6128E76A22A25C222A34D19A
:1041F00080253A32A15AA6689A8C606D92B26D0100
:10420000AE4242D0431C0A406365027023685A21C3
:10421000625A013A92B26252002A00D03AE71A6812
:104220001E4920000A401A609A682331FF318A43F0
:104230009A606A232022E254FEF7CCFA236829E729
:104240002000FFF7CFFEE566F7E640211A688243BB
:104250001A601A680A431A60EFE608219A690A434D
:104260009A6117E72069002800D04FE713400B80C0
:10427000023161654EE72169002992D1118802322D
:10428000C905C90D1985E2648FE72569002DB9D1EB
:104290000A40028002306065B9E7C046DFFEFFFFDA
:1042A000E93F0008436A30B5DA0706D50168284CB3
:1042B0004A682240846A22434A609A0706D5016808
:1042C000244C4A682240C46A22434A605A0706D5F1
:1042D0000168214C4A682240046B22434A601A0755
:1042E00006D501681D4C4A682240446B22434A604F
:1042F000DA0606D501681A4C8A682240846B22438C
:104300008A609A0606D50168164C8A682240C46BFA
:1043100022438A605A060AD50168134D4A68046C24
:104320002A4022434A6080225203944209D01B064D
:1043300006D502680D4953680B40816C0B435360EE
:1043400030BD4A680A4C2240446C22434A60EEE782
:10435000FFFFFDFFFFFFFEFFFFFFFBFFFF7FFFFFF4
:10436000FFEFFFFFFFDFFFFFFFFFEFFFFFFFF7FFA5
:10437000FFFF9FFFF0B5C646040000B5002845D0FA
:104380006923C35CDBB2002B44D069232422256857
:10439000E2542B68233A93432B602069A3682A6870
:1043A00003436069E16903439C480B4302401343A4
:1043B0002B606B689A4A206A1340E26813436B6073
:1043C000A369AA680343974802401343AB60964B26
:1043D0009D4260D0954B9D4200D176E0944B9D422A
:1043E00000D18CE0934B9D421BD0934B9D4218D043
:1043F000924B9D4215D0924B9D4212D0914B9D42C3
:104400000FD080231B02994200D1F8E0012004BCA8
:104410009046F0BD68228354FFF71AFBB5E7002BE6
:10442000EFD180231B02994200D1C0E000F000FDD3
:10443000636825685B0818186168FBF777FE00045D
:10444000000CE860636A002B00D090E06B687E4A45
:1044500013402A226B60AB689343AB602B68293A08
:1044600013432B600023E36600F0D4FD23686E4AFB
:104470000600934256D06D4A934253D06C4A934201
:1044800050D020236922A3540132A3540022483380
:10449000E2540020BBE76D4B1A6B032313406C4AB8
:1044A000D35C80221202914200D191E0022B22D0F3
:1044B00000D8AFE0042B71D0082BA7D1636858084F
:1044C00080231B029C466044B6E7C02080225F4BDD
:1044D00080021B6B5202034093425BD09FD9802223
:1044E0009202934219D0834200D08AE780231B02B4
:1044F000994200D187E063685808564BE2E7C02034
:104500008022524B00031B6BD2020340934241D0E6
:1045100085D9802212039342E5D180231B02994260
:10452000CCD15CE01A68120726D41A685207A8D5C5
:10453000494A80279046FF03DD693D40A1D100F044
:1045400069FD2368801B4045F6D91A68434903205A
:104550000A401A609A68A331FF318A439A60202387
:104560006922A3540132A3544833E5544FE7200095
:10457000FFF798FE256869E7374A80279046BF0312
:10458000DD693D40D1D100F045FD2368801B4045E9
:10459000F6D9DAE780231B02994238D000F002FCFA
:1045A000636825685B08181846E7002B27D100F0E0
:1045B0003FFC636840005B08C0186168FBF7B6FD0C
:1045C000274B256803400007400F1843E86039E790
:1045D000022B18D0E9D9042B19D0082B0FD163680E
:1045E000580880235B029C4661686044FBF79EFD8F
:1045F0001B4B03400007400F1843E86022E70023ED
:104600000120EB6003E763685808164BEBE700F006
:10461000C9FBCEE7002B00D0F8E607E7F369FFEF10
:10462000FFCFFFFFFFF4FFFF0038014000440040D0
:1046300000480040004C0040005000400014014081
:1046400000180140001C0140FFB7FFFF00100240AE
:10465000388C000800127A00FFFFFF015FFEFFFFA9
:10466000F0FF00000024F4007047C046F0B5CE46CD
:10467000474680B5036883B00400DA072FD50C21C4
:10468000C54842680A40042A00D104E1426811404A
:10469000082900D1F6E06368012B00D135E1002B39
:1046A00000D169E1052B00D128E2BB4BBB491A6858
:1046B0000A401A601A68BA490A401A6000F0AAFC57
:1046C00080250700B44EAD0205E000F0A3FCC01B3E
:1046D000642800D94EE133682B42F6D023689A074C
:1046E00029D50C22AC494868024200D1E7E048686D
:1046F0000240082A00D1D9E0E368002B00D17BE119
:104700000122A54F02253B6813433B6000F082FC69
:10471000060005E000F07EFC801B022800D929E19C
:104720003B681D42F6D0F8213A6823698A43DB00D2
:1047300013433B6023681A072BD45A0743D58022C2
:10474000954B5205D9690025114207D1D969013528
:104750001143D961DB691A400192019B8026914F78
:1047600076003B68334200D1D6E0A368012B00D12C
:10477000E3E0002B00D125E1052B00D195E10121DB
:10478000854B1A6A8A431A621A6A03318A431A628B
:10479000D7E0E369804D002B00D1A3E001226B6AD2
:1047A000022613436B6200F035FC070005E000F0C1
:1047B00031FCC01B022800D9DCE06B6A1E42F6D037
:1047C00023685A07BBD4DA0612D56269012A00D1E0
:1047D00075E1053200D023E10420F8256E494A6BCB
:1047E00082434A63486BA269A843D20002434A63EA
:1047F0009B0622D50C2268494B6813400C2B00D134
:104800002DE14B681A40082A00D121E1236A624D4C
:10481000002B00D12EE180266B6B760233436B6355
:1048200000F0F8FB070005E000F0F4FBC01B0228D5
:1048300000D99FE06B6B3342F6D0636A002B1BD02C
:104840000C22554D69680A40082A2DD0022B00D150
:1048500060E12B68544A802413402B6000F0DAFB9F
:10486000A404060005E000F0D5FB801B022800D957
:1048700080E02B682342F6D1002003B00CBC9046A8
:104880009946F0BDC021426849020A408021490290
:104890008A4200D0FFE6404A1268920300D41EE725
:1048A0006268002A00D01AE70120E6E74A68C021C2
:1048B00049020A40802109028A4200D01CE7364A98
:1048C0001268920702D5E268012AEDD1F825324834
:1048D00022690168D200A9430A4302601A0700D482
:1048E0002BE756E701226B6A022693436B6200F0C6
:1048F00091FB070004E000F08DFBC01B022839D8B3
:104900006B6A1E42F7D123685BE78023224A5B0271
:1049100011680B431360D1E63B6833433B6000F002
:1049200079FB804605E000F075FB4346C01A642819
:1049300020D83B683342F6D017E717490A6A134379
:104940000B6200F067FB194B8146134F0226984615
:1049500005E000F05FFB4B46C01A40450AD83B6AB1
:104960001E42F6D0012D00D198E02368DA0600D46B
:104970003EE72AE7032080E7074D084A2B68802698
:1049800013402B602B68064AB60213402B6000F0E0
:1049900041FB070011E0C04600100240FFFFFEFF90
:1049A000FFFFFBFF00700040FFFFFFFE88130000C9
:1049B00000F030FBC01B6428DCD82B683342F7D1F1
:1049C00023688CE601226F4E0227336A93433362D9
:1049D000336A03329343336200F01CFB6A4B814617
:1049E000984605E000F016FB4B46C01A4045C1D87A
:1049F000336A1F42F6D1B5E70122624D02262B68C9
:104A000093432B6000F006FB070004E000F002FB7C
:104A1000C01B0228AED82B681E42F7D123688AE655
:104A20000422584D02266B6B13436B636B6B033A86
:104A300093436B6300F0EEFA070004E000F0EAFA3B
:104A4000C01B022896D86B6B1E42F7D12368CFE6B5
:104A5000C0224B6852021340934200D0D6E6494B25
:104A60005B6BDB0300D4E8E6236A012B00D1E4E6AC
:104A7000012002E76B6B454A802613406B6300F010
:104A8000C9FA7602070005E000F0C4FAC01B02284C
:104A900000D96FE76B6B3342F6D1CEE6394A3C4919
:104AA000D3690B40D361236860E70421354B1A6A50
:104AB0000A431A621A6A03390A431A6241E7042157
:104AC000304D02266B6B0B436B636B6B1A436A634F
:104AD00000F0A0FA070005E000F09CFAC01B0228D5
:104AE00000D947E76B6B1E42F6D0F8216A6BA369C9
:104AF0008A43DB0013436B63236879E68022214BF2
:104B0000D20219680A431A608022196852020A43C5
:104B10001A60D3E52B681F4A802613402B6000F0F3
:104B200079FAB604070005E000F074FAC01B022809
:104B300000D91FE72B683342F6D10F22EB6A93436B
:104B4000226B1343EB62A16AE36A6A680B43124962
:104B500080240A4013436B6080232A685B0413435C
:104B60002B6000F057FA074D0600A40405E000F0A2
:104B700051FA801B022800D9FCE62B682342F6D0AC
:104B80007AE6C0460010024088130000FFFFFEFFD7
:104B9000FFFFFFEFFFFFFFFEFF7FC2FFF0B5CE4636
:104BA0004746012380B50C00744989B00A680500A6
:104BB0001A40A2420DD20A689A4322430A600A6848
:104BC0001340A34205D0012009B00CBC9046994681
:104BD000F0BD2B689A0706D5F02069494A688243E0
:104BE000A86802434A60DB072BD56B68644A012B37
:104BF0006ED0022B68D0032B00D194E0126892078C
:104C0000E1D503215E4E72688A431343736000F05E
:104C100001FA6B680700012B75D0022B00D187E0E9
:104C2000032B00D194E00C239846564B994604E0A0
:104C300000F0F0F9C01B484563D8424673681A4239
:104C4000F6D101214D4A13680B40A34205D91368E0
:104C50008B43136013681942B5D12B685B072BD4C3
:104C60006946494B0A00180070C870C200681033CA
:104C7000106004AA100070CB70C01B68404D036028
:104C80000C206B681840082826D00C384342584145
:104C90003E4B404218403E4B9C466044384B3D4A98
:104CA0005B681B061B0FD35CD8403B4B1860002091
:104CB000FEF788FF002087E7314A384953680B40E8
:104CC000E9680B435360CBE71268920199D47AE705
:104CD0001268920395D476E70F209C0C04400C5D7B
:104CE000E96A0840115CC022802052021340400251
:104CF000834201D093423BD02548FBF717FA60432B
:104D0000CCE7032060E70B3398461E4B994604E03E
:104D100000F080F9C01B4845F3D842467368134041
:104D2000042BF5D18DE7526BD20300D569E74AE732
:104D30000A339846134B994604E000F06BF9C01B08
:104D40004845DED8424673681340082BF5D178E712
:104D5000093398460B4B994604E000F05BF9C01B01
:104D60004845CED84246736813400C2BF5D168E70E
:104D70000B48FBF7DBF9604390E7C0460020024098
:104D800000100240881300005C880008005A62028C
:104D900000127A003C8C000848000020FFF8FFFF5A
:104DA000006CDC0270B588B069461C4B0A00180024
:104DB00070C870C200681033106004AA100070CB75
:104DC00070C01B68164D03600C206B6818400828E3
:104DD0000AD00C3843425841124B40421840124B03
:104DE0009C46604408B070BD0F209C0C04400C5DD4
:104DF000E96A0840115CC022802052021340400240
:104E0000834201D0934204D00748FBF78FF96043F7
:104E1000E8E70648FBF78AF96043E3E75C880008A7
:104E200000100240005A620200127A00006CDC029C
:104E3000044B054A5B685B055B0FD35C034A106853
:104E4000D8407047001002404C8C000848000020F9
:104E50000723032203600A4B10B55C6822404260BE
:104E6000F0225C6822408260E0225B68D20013403E
:104E7000C360044B1A68012313400B6010BDC04689
:104E80000010024000200240F0B5CE46474680B5F3
:104E9000036883B00400DA0336D58022494B5205FB
:104EA000D9690027114207D1D96901371143D96166
:104EB000DB691A400192019B8026434D76002B68E6
:104EC000334254D0C0213F4D89002A6A60680A40AD
:104ED00011D0014091420ED08022296A2E6A5202DE
:104EE00032432A622A6A394B394E0B4032402A62D9
:104EF0002B62CB0754D4334A3449136A0B40034323
:104F00001362012F44D02368DA0706D503202D4908
:104F10000A6B8243A06802430A639A0706D52949AF
:104F20002C480A6B0240E06802430A635A0306D524
:104F3000244929480A6B0240206902430A639A0601
:104F400006D510201F490A6B8243606902430A6339
:104F500000205B0506D540211A4A136B8B43A169DB
:104F60000B43136303B00CBC90469946F0BD2B680D
:104F700033432B6000F04EF8804605E000F04AF81D
:104F80004346C01A642809D82B683342F6D099E703
:104F9000D36912490B40D3612368B5E70320E1E7E9
:104FA00000F038F80E4B80460226994605E000F0E6
:104FB00031F84346C01A4845F0D82B6A1E42F6D055
:104FC000606898E70010024000700040FFFCFFFF9F
:104FD000FFFFFEFFFFFFFCFFFFFFF3FFFFFFFFEF01
:104FE000881300001021064A10B5136800200B43F7
:104FF0001360FEF7E7FDFEF70DFD002010BDC04673
:1050000000200240024A1368013313607047C04613
:10501000F0250020014B18687047C046F02500209D
:10502000F0B54E46DE4657464546E0B58946096826
:1050300085B0002900D182E0704B00229B46704B66
:105040008A4698460125544695402C40009472D0DB
:105050004B46596810230F009F430197022F00D140
:1050600074E0036856009C460323B3406446DB4368
:105070001C40270003240C40B440A4463C00674673
:105080003C43019F0460013F012F00D87BE0C568CD
:105090002B404D46AD68B5402B43C36080235B0574
:1050A000194248D05B4601245D4603260F279B69C1
:1050B00016402343AB61AB69B6002340514CB74067
:1050C000A44690240393039B93089B0063449D682C
:1050D000E405BD43A04212D04B4FB84200D180E05E
:1050E0004A4FB84200D178E0494FB84200D17CE045
:1050F000484FB84200D17CE00527B7403D439D6052
:105100004346009C1B68E543CC034ED444462B40E9
:10511000236063688C034FD444462B406360A368CC
:10512000CC0250D444462B40A360E368890251D49A
:105130002B404146CB6053460132D34082D105B06B
:105140003CBC90469946A246AB46F0BD07260F24CC
:105150001640B600B440D3089B00C3181F6AA7438B
:105160004C462469B44026003E431E620323560089
:10517000B340DB4307681F40BC4603270F40B740DE
:1051800064462743076087684C461F40BC46E76873
:105190006446B7402743012487604768AF430D0941
:1051A000254095403D43456071E7009C23434446BC
:1051B000236063688C03AFD5009C2343444663603F
:1051C000A368CC02AED5009C23434446A360E368A9
:1051D0008902ADD500990B43ABE70227B7403D43A9
:1051E0008DE70124B440254389E70324B4402543D7
:1051F00085E70427B7403D4381E7C04600100240E1
:10520000000401400000014000040048000800487C
:10521000000C004800100048002A01D1816270474C
:105220008161FCE743695940416170477047C0465E
:10523000044B10B55A69104202D05861FFF7F6FFCF
:1052400010BDC0460004014010B5041E38D0212313
:105250000222C25400681B4A0368A1681A406368AE
:105260000B43E1680B4321690B4361690B43A1695F
:105270000B43E1690B4313430360134B984216D968
:10528000124B14219C466044FAF750FF104B8000EB
:10529000E36321220023012120640020A362E36252
:1052A00023636363A363A154013AA35410BD094B64
:1052B00014219C466044FAF739FF074B8000E7E76A
:1052C0000120F3E70FC0FFFF07040240F8FBFDBF1A
:1052D00000040240F8FFFDBF00000240212370B52A
:1052E000C25C022A03D01D3B8363012070BD0E24E3
:1052F0000268056C1168A1431160012114688C4398
:1053000014600C00AC40C26B5460C15400222023D6
:10531000C254436B002B02D098470020E6E70020E0
:10532000E4E7C046F8B504242600036CC56B9E4034
:105330002A6801680F6832420DD03C420BD00B68DE
:105340009B0602D40B68A3430B60C36A6E60002BFC
:1053500000D09847F8BD022426009E40324214D067
:105360003C4212D00B689B0606D40A220B6893437A
:105370000B602123093AC254202300226E60C254DC
:10538000836A002BE6D09847E4E7082426009E4075
:105390003242DFD03C42DDD00A680634A2430A60C4
:1053A000012211009940212369608263C2540022C6
:1053B000013BC254036B002BCCD09847CAE7C046D0
:1053C000FF22032330B51400C5B22B40DB009C4004
:1053D00089010A40E4439A4000280BDB0C4B80080B
:1053E0009C46C023800060449B00C1580C4022436F
:1053F000C25030BD0F2307492B408C46083B9B0809
:105400009B006344D9690C402243DA61F1E7C0464E
:1054100000E100E000ED00E01F2318401E3B834048
:10542000014A13607047C04600E100E00121114BC2
:1054300011481A680A431A605A6802405A601A688A
:105440000E4802401A601A680D4802401A605A68F5
:105450000C4802400F205A60DA6A8243DA621A6B03
:10546000094802401A635A6B8A435A6300229A60C1
:105470007047C046001002400CB8FF08FFFFF6FE60
:10548000FFFFFBFFFFFFC0FFACFEF0FF03000122A8
:1054900008334360C36003610023524282600360AB
:1054A0007047C046002303617047C04643689A684E
:1054B0004B608A609A6851609960036808610133A3
:1054C00003607047020030B50C680832631C01D1DC
:1054D0000DE01A0053681D68A542FAD94B60996027
:1054E00003688A60013351600861036030BD02695E
:1054F0005368F3E7426881680369916081684A6094
:105500005A68824200D15960002202611A68501E16
:1055100018607047F8B50400144B154D1E682868D4
:105520000F000430FFF7E6FF631C17D02B68341917
:105530005C60A6420BD80F4B186829680431FFF74E
:10554000C1FF0D4B1A68A24200D91C60F8BD0B4B7D
:10555000186829680431FFF7B5FFF7E7002FE5D099
:10556000296807480431FFF7A1FFEFE76003002037
:105570003C020020400200201803002044020020CA
:1055800038030020F0B54F464646DE46C0B59600CB
:10559000804630000D00994600F09EFC071E00D1A9
:1055A00006E1542000F098FC041E00D1D0E007234F
:1055B0000763043EBE192A789E432D33C2542B78CC
:1055C000002B56D035236A78C2546B78002B50D00C
:1055D0003623AA78C254AB78002B4AD03723EA7816
:1055E000C254EB78002B44D038232A79C2542B794B
:1055F000002B3ED039236A79C2546B79002B38D006
:105600003A23AA79C254AB79002B32D03B23EA79F2
:10561000C254EB79002B2CD03C232A7AC2542B7A2B
:10562000002B26D03D236A7AC2546B7A002B20D0FF
:105630003E23AA7AC254AB7A002B1AD03F23EA7ACF
:10564000C254EB7A002B14D040232A7BC2542B7B0C
:10565000002B0ED041236A7BC2546B7B002B08D0F9
:105660004223AA7BC254AB7B002B02D04323EA7BAC
:10567000C25443230022089FE254062F54D800232B
:10568000251DA3642800E76267649B46FFF70AFFB5
:1056900020001830FFF706FF0723DB1BA3615B46E2
:1056A0005A46E3645033246164624146E254300058
:1056B0004A4600F0E7FC099B2060002B00D01C60EC
:1056C00000F0FEFC3C4A3D4F1368013313603B6819
:1056D000002B31D03A4B1A689846E36A002A25D04D
:1056E000384E39490A6801320A60384A11689942CD
:1056F00018D39800C018800029003018FFF7D6FE94
:1057000000F0EAFC43461B680125002B04D03B68EF
:10571000DA6AE36A9A4218D328001CBC904699467C
:10572000A346F0BD1360E4E70627A8E73A68D26A0B
:105730009A42D5D83C60D3E73C601368012B0DD06A
:105740001F4AE36A1F4E9046CBE700F0ADFCE3E74B
:105750000125380000F046FC6D42DDE78C23194E30
:105760009946B046B1444046FFF790FE14239C464C
:10577000E044C845F7D1164B99461800FFF786FE5E
:10578000144B18009846FFF781FE1348FFF77EFE82
:105790001248FFF77BFE1248FFF778FE4A46114B8E
:1057A0001A604246104B1A60054AE36A904698E731
:1057B00001256D42B0E7C046D40200203C02002023
:1057C0003403002048020020E4020020E802002008
:1057D000EC02002000030020200300204C030020E6
:1057E00038030020400200204402002070B5041E4F
:1057F0000CD0174D2B68834207D000F061FC154B8D
:1058000062699A4204D000F067FC70BD72B6FEE790
:10581000A36A114A9342F6D0002BF4D1261D300022
:10582000FFF768FE0D4AE36A11688B4200D91360E6
:10583000142058430A4B3100C018FFF737FE2B687D
:10584000E26ADB6A9A42DED300F02EFCDBE7C04658
:105850003C0200203803002020030020E802002042
:1058600048020020F8B58020CE464746800080B52B
:1058700000F032FB051E00D17EE0542000F02CFB2E
:10588000041E00D175E007230563FD35FF359846FA
:105890009D434D4B2E00436300253823071DC554FF
:1058A0000B33C554C562456485643800FFF7FAFDC3
:1058B00020001830FFF7F6FD4346A361493300226C
:1058C00024616462E5644149E554300000F0DAFB8C
:1058D0003F4B20601C6000F0F3FB3E4B1A68013226
:1058E0001A603D4A90461268002A39D03B4EE36A5E
:1058F0003268002A06D142461268D26A9A4201D81A
:1059000042461460364D37490A6801320A60364A09
:105910001168994200D213609800C01880002818BE
:105920003900FFF7C3FD00F0D7FB3368002B07D029
:1059300043461B68DA6AE36A9A4201D200F0B4FB7C
:1059400072B60122294B52421A60012300223360B1
:10595000274B1A6000F024FC0CBC90469946F8BD19
:10596000424614601B68012B08D0E36A1C4D1B4E95
:10597000C9E7280000F036FB72B6FEE78C23184D0D
:1059800099462E00A94430001436FFF77FFDB1453B
:10599000F9D1184B99461800FFF778FD164E3000E4
:1059A000FFF774FD1548FFF771FD1548FFF76EFD11
:1059B0001448FFF76BFD4A46134B1A60134B1E60E9
:1059C000E36A064E9FE7C04649444C45B55C000873
:1059D00014030020D40200203C02002034030020E5
:1059E00048020020E4020020E80200201803002002
:1059F00060030020EC0200200003002020030020B0
:105A00004C03002038030020400200204402002004
:105A1000024A1368013313607047C046E002002059
:105A2000F0B5DE4657464E464546E0B5484B83B096
:105A30001B68002B1AD1474B1F6801371F60002FCE
:105A400026D0454D2B680026BB4228D9434B9946AA
:105A5000434B9A4653461B68DA6A93009B184A46A2
:105A60009B00D358012B06D9012604E000263D4AAD
:105A70001368013313603C4B1B68002B00D00126D8
:105A8000300003B03CBC90469946A246AB46F0BD00
:105A9000364C23681B68002B41D072B6FEE72F4BB3
:105AA000324C99462E4B9A46314B9B4623681B68D5
:105AB000002B2FD02368DB68DB6898465B689F4229
:105AC0002BD34346043318000193FFF713FD4346DD
:105AD0009B6A002B03D040461830FFF70BFD43466E
